:100000000C942A000C9434000C9434000C943400AA
:100010000C9434000C9434000C9434000C94340090
:100020000C9434000C9434000C9434000C94340080
:100030000C9434000C9434000C9434000C94340070
:100040000C9434000C9434000C9434000C94340060
:100050000C94340011241FBECFE5D8E0DEBFCDBF25
:100060000E9436000C9452000C940000D098A39A81
:10007000AB9A88E893E120E931E0F9013197F1F793
:100080000197D9F7AB9820E931E0C89B09C0A89A3D
:1000900088E893E1F9013197F1F70197D9F7F5CFA6
:0800A000AB98F3CFF894FFCFF9
:00000001FF
